:100000000C94061A0C94F27E0C941D7F0C94487F7D
:100010000C94737F0C949E7F0C94C97F0C94F47F96
:100020000C941F800C94371A0C94371A0C94371ABE
:100030000C94371A0C94371A0C94371A0C94371AFC
:100040000C94371A0C94371A0C94371A0C94371AEC
:100050000C94371A0C94371A0C94371A0C942F847A
:100060000C94371A0C94F7790C942C7A0C94371A58
:100070000C94371A0C94371A0C94371A0C94371ABC
:100080000C94371A0C94371A0C94371A0C94371AAC
:100090000C948D7A0C94C27A0C94371A0C948D8837
:1000A0000C94371A0C94371A0C94371A0C94371A8C
:1000B0000C94371A0C94371A0C94371A0C94371A7C
:1000C0000C94371A0C94371A0C94371A0C94237B1F
:1000D0000C94587B0C94371A0C94B97B0C94EE7BDF
:1000E0000C94371AA824CC24FD241725172517258E
:1000F0003325DB25A824DB255D25DB256F256F2532
:1001000095259525FD2411261126FD246F25DB2537
:100110001725A525DB25DB25DB25DB25DB25C525EF
:10012000DB25DB2580261D284229372A722B722BDE
:100130004B2DB32E5834C02FB1311D32E535BE36AC
:100140009A389A38422990419041422991379A39F8
:10015000B82C633A323B383D5F3CF13D383F92402A
:10016000A64058300A5E345E345E125E345E345E01
:10017000345EFA5D345E345E345E225E345E345E3C
:10018000345E345E025E1A5E345E2A5ECC7E967EFB
:100190009E7EAA7EB77ED87EE57E63856685558580
:1001A00059855F859D856A856E85748578857C8592
:1001B000828586858A859D8590859485988505A804
:1001C0004CCDB2D44EB93836A9020C50B9918688BC
:1001D000083CA6AAAA2ABE000000803F0C94EC7A34
:1001E0000C9433250C9455850C945F850C949525BF
:1001F0000C94C5860C9494850C941D280C94FD24B5
:100200000C9466850C94BB780C9492400C94BE368A
:100210000C94722B0C94F6790C946F250C94C525D4
:100220000C94B32E0C947D7E0C9490850C94A64077
:100230000C946A850C94E5350C947C850C941126FD
:100240000C940F8A0C9493780C9469860C942779FB
:100250000C94383D0C941D320C94AA7E0C94227C94
:100260000C9490410C94827B0C9494860C94F13DF8
:100270000C94025E0C940A5E0C949A780C944B2DAC
:100280000C944F7C0C9474850C9483780C944229C4
:100290000C94345E0C9446920C94383F0C949885E0
:1002A0000C94FA5D0C94125E0C94778B0C949D85E3
:1002B0000C94C78A0C94F3790C945D250C94C02F90
:1002C0000C94F0890C9495860C94D84D0C941725B9
:1002D0000C9486850C9495870C9458300C944A8025
:1002E0000C9485860C94A5250C94D4890C94633ABF
:1002F0000C949A390C94DB710C94428B0C94198AEF
:100300000C94567A0C949E7E0C94158B0C94A82415
:100310000C94B1310C942A5E0C9480260C94CC7E03
:100320000C949F8E0C94B77E0C94CB780C947885AB
:100330000C9482850C94967E0C94E57E0C945985E1
:100340000C941A5E0C945F3C0C94607A0C948C7B39
:100350000C94D87E0C9463850C94F67A0C949137A7
:100360000C94187C0C946E850C94B82C0C948A8593
:100370000C94DB250C9471860C949A380C94225EB4
:100380000C94CC240C94323B0C94DE9A0C9458348C
:100390000C94A8780C9449790C94372A0C94E36354
:1003A0000C94BE8900407A10F35A00A0724E1809CE
:1003B0000010A5D4E80000E87648170000E40B54CC
:1003C000020000CA9A3B000000E1F505000080969B
:1003D0009800000040420F000000A08601000000CD
:1003E000102700000000E803000000006400000087
:1003F00000000A00000000000100000000002C7650
:10040000D888DC674F0823DFC1DFAE59E1B1B7966A
:10041000E5E3E453C63AE651997696E8E6C28426C7
:10042000EB898C9B62ED407C6FFCEFBC9C9F40F2A3
:10043000BAA56FA5F490055A2AF75C936B6CF9671F
:100440006DC11BFCE0E40D47FEF520E6B500D0EDE4
:10045000902E0300943577050080841E080000204C
:100460004E0A000000C80C333333330F986E1283EA
:100470001141EF8D2114893BE65516CFFEE6DB18BE
:10048000D1844B381BF77C1D901DA4BBE424203283
:1004900084725E228100C9F124ECA1E53D27101091
:1004A000205F0000000000000000000000000000CD
:1004B000000000000000000000000000000000003C
:1004C00000000000000007000F800F800F800F80E9
:1004D0000F8007000700000000000700070007006A
:1004E000000000000E380E380E380E3806300000BE
:1004F00000000000000000000000000000000000FC
:10050000000000000C300C300C307FFE7FFE0C3001
:100510000C300C300C307FFE7FFE0C300C300C3079
:1005200000000000024002400FF81FF81A401A4075
:100530001FF00FF8025802581FF81FF00240024047
:1005400000000000000000000E100E300E7000E0F1
:1005500001C0038007000E700C70087000000000DE
:100560000000000000000F001980198019800F00A2
:100570000F080F9819F818F018E019F00F980000FC
:100580000000000000000700070007000E00000048
:10059000000000000000000000000000000000005B
:1005A00000000000000000F001C0038007000E0002
:1005B0000E000E000E000700038001C000F00000D6
:1005C0000000000000000F00038001C000E0007088
:1005D00000700070007000E001C003800F00000098
:1005E00000000000000001801188099007E007E08A
:1005F0003FFC3FFC07E007E0099011880180000004
:100600000000000000000000000001800180018067
:100610000FF00FF001800180018000000000000059
:1006200000000000000000000000000000000000CA
:1006300000000000000000000700070007000E0097
:1006400000000000000000000000000000000000AA
:100650001FF81FF80000000000000000000000006C
:10066000000000000000000000000000000000008A
:100670000000000000000000070007000700000065
:1006800000000000000000020006000E001C003800
:10069000007000E001C0038007000E001C00000095
:1006A0000000000000000FF01C381C781CF81CF83B
:1006B0001DB81DB81F381F381E381C380FF0000039
:1006C0000000000000000180018003801F801F8067
:1006D0000380038003800380038003801FF00000F9
:1006E0000000000000000FE01C701C380038007093
:1006F00000E001C0038007000E381C381FF800001E
:100700000000000000000FE01C701C380038007072
:1007100003C003C0007000381C381C700FE00000DC
:1007200000000000000000E001E003E006E00CE053
:1007300018E01FF81FF800E000E000E003F80000F8
:100740000000000000001FF81C001C001C001C0022
:100750001FE01FF0007800381C381C700FE000000C
:1007600000000000000003E007000E001C001C0059
:100770001FF01FF81C381C381C381C380FF0000004
:100780000000000000001FFC1C1C1C1C1C1C001C8A
:100790000038007000E001C0038003800380000087
:1007A0000000000000000FF01C381C381C381F38F7
:1007B00007E007E01CF81C381C381C380FF000005C
:1007C0000000000000000FF01C381C381C381C38DA
:1007D0001FF80FF800380038007000E007C0000074
:1007E0000000000000000000000003800380038080
:1007F0000000000003800380038000000000000070
:10080000000000000000000000000380038003805F
:100810000000000003800380038007000000000048
:1008200000000000007000E001C0038007000E001F
:100830001C001C000E000700038001C000E00070D7
:100840000000000000000000000000003FFC3FFC32
:10085000000000003FFC3FFC000000000000000022
:10086000000000001C000E000700038001C000E033
:100870000070007000E001C0038007000E001C0043
:100880000000000003C00FF01E7818380038007018
:1008900000E001C001C00000000001C001C001C0B3
:1008A000000000000FF81C1C1C1C1C1C1C1C1CFC49
:1008B0001CFC1CFC1CFC1C001C001C001FF007F88E
:1008C00000000000000003C007E00E701C381C3858
:1008D0001C381C381FF81C381C381C381C38000009
:1008E0000000000000001FF00E380E380E380E38E1
:1008F0000FF00FF00E380E380E380E381FF00000D3
:1009000000000000000007F00E381C381C001C001E
:100910001C001C001C001C001C380E3807F00000D6
:100920000000000000001FE00E700E380E380E3878
:100930000E380E380E380E380E380E701FE00000DC
:100940000000000000001FF80E180E080E000E3008
:100950000FF00FF00E300E000E080E181FF80000FA
:100960000000000000001FF80E180E080E000E30E8
:100970000FF00FF00E300E000E000E001F000000F2
:1009800000000000000007F00E381C381C381C0066
:100990001C001C001CF81C381C380E3807F800001E
:1009A0000000000000001C701C701C701C701C708B
:1009B0001FF01FF01C701C701C701C701C7000005D
:1009C0000000000000000FE003800380038003802C
:1009D0000380038003800380038003800FE0000016
:1009E00000000000000001FC00700070007000704A
:1009F0000070007038703870387038700FE0000088
:100A00000000000000001E380E380E700EE00FC00F
:100A10000F800F800FC00EE00E700E381E380000E1
:100A20000000000000001F000E000E000E000E006F
:100A30000E000E000E000E080E180E381FF80000F3
:100A40000000000000001C1C1E3C1F7C1FFC1FFC43
:100A50001DDC1C9C1C1C1C1C1C1C1C1C1C1C0000CD
:100A60000000000000001C1C1C1C1E1C1F1C1F9CE6
:100A70001DDC1CFC1C7C1C3C1C1C1C1C1C1C0000CD
:100A800000000000000003E007F00E381C1C1C1CD6
:100A90001C1C1C1C1C1C1C1C0E3807F003E0000056
:100AA0000000000000001FF00E380E380E380E381F
:100AB0000FF00FF00E000E000E000E001F000000E1
:100AC00000000000000003E00F780E381C1C1C1C06
:100AD0001C1C1C1C1C7C1CFC0FF80FF8003800FCB4
:100AE0000000000000001FF00E380E380E380E38DF
:100AF0000FF00FF00E700E380E380E381E38000052
:100B00000000000000000FF01C381C381C381C00CE
:100B10000FE007F000381C381C381C380FF00000BC
:100B20000000000000001FFC19CC11C401C001C06E
:100B300001C001C001C001C001C001C007F0000038
:100B40000000000000001C701C701C701C701C70E9
:100B50001C701C701C701C701C701C700FE000005E
:100B60000000000000001C701C701C701C701C70C9
:100B70001C701C701C701C700EE007C0038000000D
:100B80000000000000001C1C1C1C1C1C1C1C1C1C4D
:100B90001C9C1C9C1C9C0FF80FF807700770000031
:100BA0000000000000001C701C701C700EE007C0EC
:100BB0000380038007C00EE01C701C701C700000D6
:100BC0000000000000001C701C701C701C701C7069
:100BD0000EE007C003800380038003800FE0000065
:100BE0000000000000001FF81C381838107000E0EA
:100BF00001C0038007000E081C181C381FF80000F5
:100C000000000000000007F00700070007000700D1
:100C100007000700070007000700070007F00000B3
:100C2000000000000000100018001C000E0007006B
:100C3000038001C000E000700038001C00070000C5
:100C400000000000000007F00070007000700070ED
:100C500000700070007000700070007007F00000FD
:100C600000000000018003C007E00E701C38000087
:100C70000000000000000000000000000000000074
:100C80000000000000000000000000000000000064
:100C900000000000000000000000000000007FFFD6
:100CA0007FFF000000001C001C0007000700000080
:100CB0000000000000000000000000000000000034
:100CC00000000000000000000000000000000FE035
:100CD000007000700FF01C701C701C700FD80000AA
:100CE0000000000000001E000E000E000E000FF0BD
:100CF0000E380E380E380E380E380E381BF0000045
:100D000000000000000000000000000000000FE0F4
:100D10001C701C701C001C001C701C700FE000007C
:100D200000000000000000F80070007000700FF07C
:100D30001C701C701C701C701C701C700FD8000084
:100D400000000000000000000000000000000FE0B4
:100D50001C701C701FF01C001C701C700FE0000049
:100D600000000000000003E00770077007000700A4
:100D70001FE01FE007000700070007001FC000007A
:100D800000000000000000000000000000000FD87C
:100D90001C701C701C701C700FF007F000701C7031
:100DA0000FE0000000001E000E000E000E000EF00E
:100DB0000F380F380E380E380E380E381E38000037
:100DC00000000000000001C001C001C000000FC011
:100DD00001C001C001C001C001C001C00FF8000086
:100DE000000000000000007000700070000003F0C0
:100DF0000070007000700070007000701C700CF0CB
:100E000007E0000000001E000E000E000E000E386D
:100E10000E700EE00FC00EE00E700E381E3800008F
:100E20000000000000000FC001C001C001C001C0EF
:100E300001C001C001C001C001C001C00FF8000025
:100E400000000000000000000000000000001FF88B
:100E50001C9C1C9C1C9C1C9C1C9C1C9C1C9C00008A
:100E600000000000000000000000000000001FE083
:100E70001C701C701C701C701C701C701C7000009E
:100E800000000000000000000000000000000FE073
:100E90001C701C701C701C701C701C700FE000001B
:100EA00000000000000000000000000000001BF037
:100EB0000E380E380E380E380E380FF00E000E00B9
:100EC0001F000000000000000000000000001FB034
:100ED00038E038E038E038E038E01FE000E000E0DB
:100EE00001F00000000000000000000000001EF003
:100EF0000FF80F380E000E000E000E001F0000004D
:100F000000000000000000000000000000000FE0F2
:100F10001C301C300F8003E0187018700FE00000C8
:100F200000000000000000000100030007001FF0A7
:100F300007000700070007000770077003E00000C4
:100F400000000000000000000000000000001C7015
:100F50001C701C701C701C701C701C700FD8000062
:100F600000000000000000000000000000001C70F5
:100F70001C701C701C701C700EE007C00380000009
:100F800000000000000000000000000000001C1C29
:100F90001C1C1C1C1C9C1C9C0FF80770077000007C
:100FA00000000000000000000000000000001CE045
:100FB0001CE00FC0078007800FC01CE01CE0000091
:100FC00000000000000000000000000000000E38DB
:100FD0000E380E380E380E3807F003E000E001C07E
:100FE0001F800000000000000000000000001FE063
:100FF00018E011C0038007000E201C601FE00000F5
:1010000000000000000001F8038003800380070057
:101010001C001C00070003800380038001F800000F
:101020000000000001C001C001C001C001C001C03A
:1010300001C001C001C001C001C001C001C001C0A8
:101040000000000000001F8001C001C001C000E0DE
:101050000038003800E001C001C001C01F8000005E
:101060000000000000001F1C3B9C39DC38F8000029
:101070000000000000000000000000000000000070
:101080000000080C205F00000000000000000000CD
:101090000000000020202020202000200000002848
:1010A0005050000000000000000000002828FC282C
:1010B00050FC50500000002078A8A0603028A8F014
:1010C0002000000048A8B050283454480000000018
:1010D00020505078A8A8906C00000040408000008C
:1010E000000000000000000408101010101010088C
:1010F00004000040201010101010102040000000CC
:101100000020A87070A8200000000000202020F817
:10111000202020000000000000000000000000402F
:1011200040800000000000F8000000000000000007
:101130000000000000000040000000081010102017
:10114000204040408000000070888888888888702F
:1011500000000000206020202020207000000000FF
:1011600070888810204080F80000000070880830E7
:101170000808887000000000103050509078101857
:1011800000000000F88080F008088870000000006F
:10119000709080F08888887000000000F89010201F
:1011A00020202020000000007088887088888870C7
:1011B00000000000708888887808487000000000EF
:1011C00000002000000000200000000000000020BF
:1011D0000000002020000004081020402010080417
:1011E000000000000000F80000F8000000000040CF
:1011F00020100804081020400000000070888810AB
:101200002020002000000000708898A8A8B88078EE
:101210000000000020203050507848CC0000000032
:10122000F0484870484848F0000000007888808006
:101230008080887000000000F0484848484848F026
:1012400000000000F8485070504048F800000000CE
:10125000F8485070504040E000000000384880805E
:101260009C88483000000000CC484878484848CC6A
:1012700000000000F8202020202020F800000000BE
:101280007C10101010101090E0000000EC4850602E
:10129000505048EC00000000E0404040404044FC1A
:1012A00000000000D8D8D8D8A8A8A8A8000000003E
:1012B000DC486868585848E8000000007088888852
:1012C0008888887000000000F0484870404040E086
:1012D000000000007088888888E898701800000076
:1012E000F0484870504848EC000000007888806062
:1012F000100888F000000000F8A8202020202070AE
:1013000000000000CC484848484848300000000031
:10131000CC4848505030202000000000A8A8A870F9
:101320005050505000000000D8505020205050D84D
:1013300000000000D8505020202020700000000045
:10134000F8901020204048F800000038202020208D
:10135000202020203800004040402020101010089D
:1013600000000070101010101010101070000020FD
:10137000500000000000000000000000000000001D
:101380000000000000FC0020000000000000000041
:1013900000000000000000304838483C0000000019
:1013A000C04040704848487000000000000000380D
:1013B0004840403800000000180808384848483CB9
:1013C00000000000000000304878403800000000B5
:1013D0001C20207820202078000000000000003C25
:1013E0004830407844380000C0404070484848ECDD
:1013F000000000002000006020202070000000009D
:10140000100000301010101010E00000C040405CD0
:10141000507048EC00000000E0202020202020F840
:1014200000000000000000F0A8A8A8A8000000002C
:10143000000000F0484848EC0000000000000030C8
:101440004848483000000000000000F0484848705C
:1014500040E000000000003848484838081C000000
:10146000000000D8604040E000000000000000786C
:101470004030087800000000002020702020201854
:1014800000000000000000D84848483C0000000070
:10149000000000EC4850302000000000000000A8D0
:1014A000A870505000000000000000D8502050D814
:1014B00000000000000000EC4850302020C0000078
:1014C0000000007810202078000000181010102074
:1014D0001010101018001010101010101010101014
:1014E000101000602020201020202020600040A448
:1014F00018000000000000000000000000000000D4
:1015000000000000000000000000000000000000DB
:10151000000000000000000000000000FFFFDFFFEF
:10152000FFFFDFFF5DEF0000000000000000000093
:1015300000000000000000000000000000000000AB
:10154000000000000000000000000000000000009B
:10155000000000000000000000000000000000008B
:10156000000000000000000000000000FFFFFFFF7F
:10157000FFFFFFFFBEF79EF7000000000000000025
:10158000000000000000000000000000000000005B
:10159000000000000000000000000000000000004B
:1015A000000000000000000000000000000000003B
:1015B00000000000000000000000FFFFFFFFFFFF31
:1015C000FFFFFFFFFFFFBEF73CE700000000000049
:1015D000000000000000000000000000000000000B
:1015E00000000000000000000000000000000000FB
:1015F00000000000000000000000000000000000EB
:101600000000000000000000FFFFFFFFFFFFFFFFE2
:10161000FFFFFFFFFFFFFFFFBEF79EF70000000088
:1016200000000000000000000000000000000000BA
:1016300000000000000000000000000000000000AA
:10164000000000000000000000000000000000009A
:10165000000000000000FFFFFFFFFFFFFFFFFFFF94
:10166000FFFFFFFFFFFFFFFFFFFFBEF73CE70000AC
:10167000000000000000000000000000000000006A
:10168000000000000000000000000000000000005A
:10169000000000000000000000000000000000004A
:1016A00000000000FFFFFFFFFFFFFFFFFFFFFFFF46
:1016B000FFFFFFFFFFFFFFFFFFFFFFFFBEF759CE5A
:1016C000000000000000000000000000000000001A
:1016D000000000000000000000000000000000000A
:1016E00000000000000000000000000000000000FA
:1016F0000000FFFFFFFFFFFFFFFFFFFFFFFFFFFFF8
:10170000FFFFFFFFFFFFFFFFFFFFFFFFDFFF9EF772
:1017100059CE0000000000000000000000000000A2
:1017200000000000000000000000000000000000B9
:1017300000000000000000000000000000000000A9
:10174000FFFFFFFFFFFFFFFFFFFFFFFFBEF7FFFFF2
:10175000FFFFFFFFFFFFFFFFFFFFFFFFFFFFDFFFB9
:10176000BEF75DEF00000000000000000000000078
:101770000000000000000000000000000000000069
:101780000000000000000000000000000000DBDEA0
:10179000FFFFFFFFFFFFFFFFFFFFFFFF0000FFFF57
:1017A000FFFFFFFFFFFF0000FFFFDFFFFFFFFFFF67
:1017B000FFFF9EF759CE000000000000000000006F
:1017C0000000000000000000000000000000000019
:1017D000000000000000000000000000FFFFFFFF0D
:1017E000FFFFFFFFFFFFFFFFFFFF00000000FFFF05
:1017F000FFFFFFFFFFFF00000000FFFFFFFFFFFFF5
:10180000FFFFFFFF9EF7DBDE00000000000000008E
:1018100000000000000000000000000000000000C8
:1018200000000000000000000000FFFFFFFFFFFFBE
:10183000FFFFFFFFFFFFFFFF000000000000FFFFB2
:10184000FFFFFFFFFFFF000000000000FFFFFFFFA2
:10185000FFFFFFFFDFFF9EF7BAD600000000000089
:101860000000000000000000000000000000000078
:101870000000000000000000FFFFFFFFFFFFFFFF70
:10188000FFFFFFFFBEF70000000000000000FFFFA9
:10189000FFFFFFFFFFFF00000000000000005DEF02
:1018A000FFFFFFFFFFFFDFFF9EF75DEF000000007F
:1018B0000000000000000000000000000000000028
:1018C000000000000000FFFFFFFFFFFFFFFFFFFF22
:1018D000DFFFDFFFFFFF5DEFFFFF00000000FFFF06
:1018E000FFFFFFFFFFFF00000000FFFFDFFFFFFF24
:1018F000FFFFFFFFFFFFFFFFDFFF9EF71CE700007A
:1019000000000000000000000000000000000000D7
:1019100000000000FFFFFFFFFFFFFFFFFFFFDFFFF3
:10192000FFFF5DEFDFFFFFFFBEF7FFFF0000FFFFE0
:10193000FFFFFFFFFFFF00009EF7FFFFFFFFFFFF1E
:101940005DEFFFFFFFFFFFFFFFFFDFFF9EF75DEF94
:101950000000000000000000000000000000000087
:101960000000FFFFFFFFFFFFFFFFFFFFDFFF9EF70E
:10197000000000005DEFFFFFFFFFFFFF9EF7FFFF8E
:10198000FFFFFFFFDFFF9EF7BEF7FFFFFFFFFFFF39
:1019900000000000FFFFFFFFFFFFFFFFDFFF9EF7DC
:1019A0001CE7000000000000000000000000000034
:1019B000FFFFDFFFFFFFFFFFFFFFDFFFBEF70000BE
:1019C000000000000000FFFFFFFFFFFFDFFFDFFF61
:1019D000FFFFFFFFFFFFBEF7FFFFFFFFFFFF00005E
:1019E000000000000000FFFFFFFFFFFFFFFFDFFF21
:1019F0009EF75DEF00000000000000000000FFFF08
:101A0000FFFFFFFFFFFFFFFFDFFFBEF7000000004B
:101A10000000000000000000BEF7FFFFFFFFDFFF37
:101A2000FFFFFFFFFFFFFFFFFFFFBEF7000000000B
:101A30000000000000000000FFFFFFFFFFFFFFFFAE
:101A4000FFFFBEF79EF70000000000007DEFFFFFE4
:101A5000FFFFFFFFFFFFFFFFBEF7000000000000D9
:101A600000000000000000000000FFFFFFFFFFFF7C
:101A7000FFFFFFFFFFFFFFFFFFFF00000000000070
:101A800000000000000000000000FFFFFFFFFFFF5C
:101A9000FFFFFFFFDFFF1CE70000BEF7DFFFFFFFD8
:101AA000FFFFFFFFDFFFDFFFDFFF7DEF0000000034
:101AB000000000000000000000000000BEF7FFFF73
:101AC000FFFFFFFFFFFFFFFF00000000000000001E
:101AD000000000000000FFFFFFFFFFFFDFFFDFFF50
:101AE000FFFFFFFFFFFFDFFFDBDEFFFFFFFFFFFF6B
:101AF000FFFFBEF77DEFBEF7DFFFDFFFFFFF000058
:101B00000000000000000000000000000000FFFFD7
:101B1000FFFFFFFFFFFF00000000000000000000CB
:101B2000000000000000FFFFFFFFDFFF9EF79EF7B1
:101B3000FFFFFFFFFFFFFFFFBEF7FFFFFFFFFFFFFE
:101B4000BEF79EF700007DEF9EF7FFFFFFFFBEF799
:101B50000000000000000000000000000000FFFF87
:101B6000FFFFFFFFFFFF000000000000000000007B
:101B700000000000FFFFFFFFDFFF7DEFDBDE000066
:101B8000FFFFFFFFFFFFFFFFFFFFFFFFFFFFFFFF65
:101B90007DEF0000000000003CE79EF7FFFFDFFF45
:101BA000FFFF000000000000000000000000FFFF39
:101BB000FFFFFFFFFFFF000000000000000000002B
:101BC000FFFFBEF7FFFFDFFF5DEF3CE70000000017
:101BD00000009AD6FFFFFFFFFFFFFFFFFFFFFFFFA1
:101BE000FFFF0000000000000000FFFF9EF7DFFF86
:101BF000FFFFFFFF00000000000000000000FFFFEB
:101C0000FFFFFFFFFFFF00000000000000000000DA
:101C1000FFFFFFFFDFFF3CE7FFFF000000000000C9
:101C20000000FFFFFFFFFFFFFFFFFFFFFFFFFFFFC2
:101C3000FFFFFFFFFFFF00000000000000005DEF5E
:101C4000FFFFFFFF5DEFFFFF000000000000FFFF50
:101C5000FFFFFFFFFFFF000000000000FFFFFFFF8E
:101C6000FFFFDFFF1CE70000000000000000FFFF97
:101C7000FFFFFFFFFFFFFFFFBEF79EF7BEF7FFFF6F
:101C8000FFFFFFFFFFFFFFFF00000000000000005C
:101C90005DEFFFFFFFFFDFFFFFFF00000000FFFF22
:101CA000FFFFFFFFFFFF00000000FFFFFFFFFFFF40
:101CB000FFFFFBDE0000000000000000FFFFFFFF51
:101CC000FFFFFFFFFFFFFFFF79CE0000FFFFDFFFF9
:101CD000FFFFFFFFFFFFFFFFFFFF0000000000000E
:101CE00000007DEFFFFFFFFFFFFFFFFF0000FFFF92
:101CF000FFFFFFFFFFFF0000FFFFFFFFFFFFDFFF12
:101D00001CE70000000000000000FFFFFFFFFFFFD6
:101D1000FFFFFFFFFFFFFFFF0000000000005DEF7F
:101D2000BEF7FFFFFFFFFFFFFFFFFFFF0000000008
:101D3000000000005DEFDFFFFFFFFFFFFFFFFFFF81
:101D4000FFFFFFFFFFFFBEF7FFFFFFFFDFFF1CE707
:101D50000000000000000000FFFFFFFFFFFFFFFF8B
:101D6000FFFFFFFFFFFF0000000000000000000079
:101D70007DEFDFFFFFFFFFFFFFFFFFFFFFFF000023
:101D80000000000000005DEFDFFFFFFFFFFFFFFF2F
:101D9000FFFFFFFFFFFFDFFFFFFFDFFF1CE7FFFF8E
:101DA000000000000000FFFFFFFFFFFFFFFFFFFF3D
:101DB000DFFFFFFF00000000000000000000000047
:101DC0000000BEF7DFFFFFFFFFFFFFFFFFFFFFFF8A
:101DD000000000000000FFFF9EF7DFFFFFFFFFFF96
:101DE000FFFFFFFFFFFFFFFFBEF75DEFFFFF0000FC
:101DF00000000000FFFFFFFFFFFFFFFFFFFFFFFFEF
:101E0000BEF700000000000000000000000000001D
:101E100000000000BEF7DFFFFFFFFFFFFFFFFFFF37
:101E2000FFFF0000000000003CE79EF7DFFFFFFF20
:101E3000FFFFFFFFFFFFBEF75DEF3CE70000000084
:101E40000000FFFFFFFFFFFFFFFFFFFFFFFFBEF7E9
:101E50000000000000000000000000000000000082
:101E6000000000000000BEF7BEF7FFFFFFFFFFFF0E
:101E7000FFFFFFFF0000000000005DEF9EF7DFFFA7
:101E8000FFFFFFFFBEF75DEFBAD6000000000000C5
:101E9000FFFFFFFFFFFFFFFFFFFFFFFFBEF7000099
:101EA0000000000000000000000000000000000032
:101EB0000000000000000000BEF7DFFFFFFFFFFF93
:101EC000FFFFFFFF00000000000000005DEF3CE7A7
:101ED0009EF79EF75DEF5DEF000000000000000040
:101EE000FFFFFFFFFFFFFFFFFFFFFFFF00000000FE
:101EF00000000000000000000000000000000000E2
:101F0000000000000000000000009EF7BEF7FFFF89
:101F1000FFFFFFFFFFFF0000000000000000DBDE0E
:101F20005DEF9EF73CE70000000000000000FFFFAF
:101F3000FFFFFFFFFFFFFFFFFFFF000000000000AB
:101F40000000000000000000000000000000000091
:101F5000000000000000000000000000FFFFBEF7CE
:101F6000FFFFFFFFFFFFFFFF0000000000001CE776
:101F70007DEFBEF77DEF000000000000FFFFFFFFD8
:101F8000FFFFFFFFDFFFFFFF000000000000000079
:101F90000000000000000000000000000000000041
:101FA000000000000000000000000000000055AD2F
:101FB000BEF7FFFFFFFFFFFFFFFF000000007DEF08
:101FC000BEF7FFFFDFFF00000000FFFFFFFFFFFF86
:101FD000FFFFFFFFFFFF0000000000000000000007
:101FE00000000000000000000000000000000000F1
:101FF00000000000000000000000000000000000E1
:10200000EF7BBEF7FFFFFFFFFFFFFFFFFFFFBEF706
:10201000DFFFFFFFFFFFFFFFFFFFFFFFFFFFFFFFF0
:10202000FFFFFFFF000000000000000000000000B4
:1020300000000000000000000000000000000000A0
:102040000000000000000000000000000000000090
:102050000000EF7BBEF7FFFFFFFFFFFFFFFFFFFF6B
:10206000FFFFFFFFFFFFFFFFFFFFFFFFFFFFFFFF80
:10207000FFFF000000000000000000000000000062
:102080000000000000000000000000000000000050
:102090000000000000000000000000000000000040
:1020A00000000000FFFFDFFFFFFFFFFFFFFFFFFF5C
:1020B000FFFFFFFFFFFFFFFFFFFFFFFFFFFFF7BD7A
:1020C0000000000000000000000000000000000010
:1020D0000000000000000000000000000000000000
:1020E00000000000000000000000000000000000F0
:1020F000000000000000FFFFBEF7FFFFFFFFFFFF33
:10210000FFFFFFFFFFFFFFFFFFFFFFFFFFFF0000DD
:1021100000000000000000000000000000000000BF
:1021200000000000000000000000000000000000AF
:10213000000000000000000000000000000000009F
:1021400000000000000000009EF7BEF7FFFFFFFF49
:10215000FFFFFFFFFFFFFFFFFFFFFFFF000000008B
:10216000000000000000000000000000000000006F
:10217000000000000000000000000000000000005F
:10218000000000000000000000000000000000004F
:10219000000000000000000000009EF7DFFFFFFFCE
:1021A000FFFFFFFFFFFFFFFFFFFF00000000000039
:1021B000000000000000000000000000000000001F
:1021C000000000000000000000000000000000000F
:1021D00000000000000000000000000000000000FF
:1021E0000000000000000000000000009EF7DFFF7C
:1021F000FFFFFFFFFFFFFFFF0000000000000000E7
:1022000000000000000000000000000000000000CE
:1022100000000000000000000000000000000000BE
:1022200000000000000000000000000000000000AE
:102230000000000000000000000000000000FFFFA0
:10224000FFFFFFFFFFFFFFFF000000000000000096
:10225000000000000000000000000000000000007E
:10226000000000000000000000000000000000006E
:10227000000000000000000000000000000000005E
:102280000000000000000000000000000000FFFF50
:10229000FFFFFFFFFFFFFFFF000000000000000046
:1022A000000000000000000000000000000000002E
:1022B000000000000000000000000000000000001E
:1022C000000000000000000000000000000000000E
:1022D0000000000000000000000000000000FFFF00
:1022E000FFFFFFFFFFFFFFFF0000000000000000F6
:1022F00000000000000000000000000000000000DE
:1023000000000000000000000000000000000000CD
:1023100000000000000000000000000000000000BD
:102320000000000000000000000000000000FFFFAF
:10233000FFFFFFFFFFFF00000000000000000000A3
:10234000000000000000000000000000000000008D
:10235000000000000000000000000000000000007D
:10236000000000000000000000000000000000006D
:102370000000FFFFFFFF0000000000000000000061
:10238000000000000000000000000000000000004D
:10239000000000000000000000000000000000003D
:1023A0000000FFFFFFFFFFFFFFFF00000000000035
:1023B000000000000000000000000000000000001D
:1023C000000000000000000000000000000000000D
:1023D0000000FFFFFFFFFFFFFFFFFFFFFFFF000009
:1023E00000000000000000000000000000000000ED
:1023F00000000000000000000000000000000000DD
:102400000000FFFFFFFFFFFFFFFFFFFFFFFFFFFFDA
:10241000FFFF0000000000000000000000000000BE
:1024200000000000000000000000000000000000AC
:102430000000FFFFFFFFFFFFFFFFFFFFFFFFFFFFAA
:10244000FFFFFFFFFFFF0000000000000000000092
:10245000000000000000000000000000000000007C
:102460000000FFFFFFFFFFFFFFFF0000FFFFFFFF78
:10247000FFFFFFFFFFFFFFFFFFFF00000000000066
:10248000000000000000000000000000000000004C
:102490000000FFFFFFFFFFFFFFFF00000000FFFF46
:1024A000FFFF0000FFFFFFFFFFFFFFFFFFFF000038
:1024B000000000000000000000000000000000001C
:1024C0000000FFFFFFFFFFFFFFFF00000000000014
:1024D000FFFFFFFF00000000FFFFFFFFFFFFFFFF08
:1024E000FFFF0000000000000000000000000000EE
:1024F0000000FFFFFFFFFFFFFFFFFFFFFFFFFFFFEA
:102500000000FFFFFFFF0000FFFFFFFFFFFFFFFFD7
:10251000FFFFFFFFFFFF00000000000000000000C1
:102520000000FFFFFFFFFFFFFFFF0000FFFFFFFFB7
:10253000FFFFFFFFFFFFFFFFFFFFFFFFFFFF0000A9
:10254000FFFFFFFFFFFFFFFFFFFF00000000000095
:102550000000FFFFFFFFFFFFFFFF00000000000083
:10256000FFFFFFFFFFFFFFFFFFFFFFFFFFFF000079
:1025700000000000FFFFFFFFFFFFFFFFFFFF000065
:102580000000FFFFFFFFFFFFFFFF00000000000053
:1025900000000000FFFFFFFFFFFFFFFFFFFF000045
:1025A0000000000000000000FFFFFFFFFFFFFFFF33
:1025B000FFFFFFFFFFFFFFFFFFFFFFFFFFFFFFFF2B
:1025C0000000000000000000FFFFFFFFFFFF000011
:1025D0000000000000000000FFFFFFFFFFFFFFFF03
:1025E000FFFFFFFFFFFFFFFFFFFF0000FFFFFFFFF9
:1025F000FFFFFFFF000000000000FFFFFFFFFFFFE5
:102600000000000000000000FFFFFFFFFFFF0000D0
:10261000FFFFFFFFFFFFFFFFFFFFFFFF00000000C6
:10262000FFFFFFFFFFFFFFFF00000000FFFFFFFFB6
:10263000FFFF00000000FFFFFFFFFFFFFFFF0000A4
:102640000000FFFFFFFFFFFFFFFFFFFFFFFFFFFF98
:1026500000000000FFFFFFFFFFFFFFFF0000FFFF84
:10266000FFFFFFFF0000FFFFFFFFFFFFFFFF000076
:102670000000FFFFFFFFFFFFFFFF0000FFFFFFFF66
:10268000FFFFFFFF00000000FFFFFFFFFFFFFFFF56
:10269000FFFFFFFFFFFFFFFFFFFFFFFFFFFF000048
:1026A0000000FFFFFFFFFFFFFFFF00000000000032
:1026B000FFFFFFFFFFFFFFFF00000000FFFFFFFF26
:1026C000FFFFFFFFFFFFFFFFFFFFFFFFFFFF000018
:1026D0000000FFFFFFFFFFFFFFFF00000000000002
:1026E00000000000FFFFFFFFFFFFFFFF00000000F2
:1026F000FFFFFFFFFFFFFFFFFFFFFFFFFFFF0000E8
:102700000000FFFFFFFFFFFFFFFF000000000000D1
:102710000000000000000000FFFFFFFFFFFFFFFFC1
:1027200000000000FFFFFFFFFFFFFFFFFFFF0000B3
:102730000000FFFFFFFFFFFFFFFF000000000000A1
:10274000000000000000000000000000FFFFFFFF8D
:10275000FFFFFFFF00000000FFFFFFFFFFFF000083
:102760000000FFFFFFFFFFFFFFFF00000000000071
:102770000000000000000000000000000000000059
:10278000FFFFFFFFFFFFFFFF0000FFFFFFFFFFFF57
:102790000000FFFFFFFFFFFFFFFF00000000000041
:1027A0000000000000000000000000000000000029
:1027B00000000000FFFFFFFFFFFFFFFFFFFFFFFF25
:1027C000FFFFFFFFFFFFFFFFFFFF00000000000013
:1027D00000000000000000000000000000000000F9
:1027E0000000000000000000FFFFFFFFFFFFFFFFF1
:1027F000FFFFFFFFFFFFFFFFFFFF000000000000E3
:1028000000000000000000000000000000000000C8
:10281000000000000000000000000000FFFFFFFFBC
:10282000FFFFFFFFFFFFFFFFFFFF000000000000B2
:102830000000000000000000000000000000000098
:102840000000000000000000000000000000000088
:10285000FFFFFFFFFFFFFFFFFFFF00000000000082
:102860000000000000000000000000000000000068
:102870000000000000000000000000000000000058
:1028800000000000FFFFFFFFFFFF0000000000004E
:102890000000000000000000000000000000000038
:1028A0000000000000000000000000000000000028
:1028B000000000000000FFFFFFFFFFFF000000001E
:1028C0000000000000000000000000000000000008
:1028D00000000000000000000000000000000000F8
:1028E0000000000000000000FFFFFFFFFFFF0000EE
:1028F00000000000000000000000000000000000D8
:10290000000000004552524F52004552524F5200B3
:102910004F4B21004F4B2100416363656C65722E64
:102920002E2E00496E697469616C697A696E672040
:10293000416363656C65726F6D657465722E2E2ED2
:1029400020001B5B313B33306D494E464F1B5B30E3
:102950006D3A20004552524F52004552524F52009C
:1029600053657269616C20626C7565746F6F746811
:102970003A20001B5B313B33306D494E464F1B5BA9
:10298000306D3A20004F4B210042542E2E2E00492C
:102990006E697469616C697A696E6720426C7565ED
:1029A000746F6F74682E2E2E20001B5B313B33300A
:1029B0006D494E464F1B5B306D3A20002530386C18
:1029C00058004649524D57415245205550444154B4
:1029D00045002530386C580025732F2530386C5849
:1029E0002E545854001B5B313B33346D44454255E3
:1029F000471B5B306D3A20001B5B313B33346D4429
:102A0000454255471B5B306D3A200025640D0A0096
:102A100025732C00253032642C0025732C0025737F
:102A20002C0025732C00253032642530326425308B
:102A300032642C0025303264253032642530346411
:102A40002C0025732C0025732C0025732C002C00E2
:102A500025632C253034642C00486F72697A6F6EC0
:102A60004750533A3A6572726F723A204E4D454163
:102A7000206D657373616765206465746563746553
:102A8000642E001B5B313B33346D44454255471B7C
:102A90005B306D3A20004F4B21004F4B21004552D7
:102AA000524F52004E6F2047505320646574656347
:102AB0007465643A20636865636B20776972696E38
:102AC000672E004750532E2E2E00496E697469619F
:102AD0006C697A696E67204750532E2E2E20001B9A
:102AE0005B313B33306D494E464F1B5B306D3A20B6
:102AF0000006242400400000000000000000000048
:102B000000000000000000000000000E00000000B7
:102B100000C80000000000000006010300101000C3
:102B200006010300010700060103001010B40601AE
:102B300003000107020600140001000000C00800A5
:102B400000802500000700010000000000060014BE
:102B50000001000000C00800008025000007000000
:102B6000000000000006080600E803010001005410
:102B70005241434B455200484F52495A4F4E005321
:102B800054524944455200496E697469616C697ACE
:102B9000696E67204C43442E2E2E204F4B21001B84
:102BA0005B313B33306D494E464F1B5B306D3A20F5
:102BB0000025732F25730053443A20726561644EDB
:102BC0006578744C6F673A20696E76616C69642031
:102BD00066696C650025732F25730053443A207293
:102BE0006561644E6578744C6F673A20696E7661F2
:102BF0006C69642066696C6500777269746553441A
:102C00006C696E653A206572726F72206F70656EC6
:102C1000696E67206C6F672066696C65004552526B
:102C20004F520043617264206661696C65642C20B8
:102C30006F72206E6F742070726573656E742E20D3
:102C4000496E73657274205344206361726420611D
:102C50006E6420726573657420626F6172642E2EDB
:102C60002E004F4B21004F4B2100534420436172F3
:102C7000642E2E2E00496E697469616C697A696EE2
:102C80006720534420636172642E2E2E20001B5B4C
:102C9000313B33306D494E464F1B5B306D3A20005F
:102CA000536176652072656365697665642070613D
:102CB000636B657420666F7220706F737420616E31
:102CC000616C79736973001B5B313B33366D544F14
:102CD000444F1B5B306D3A20005041434B4554201C
:102CE0005245434549564544204953204E4F5420B0
:102CF00053544154555300486F72697A6F6E58624D
:102D000065653A3A676574586265655061636B65DD
:102D1000743A20636865636B206D657373616765E2
:102D20002073697A65206265666F726520726561DD
:102D300064696E672069742E00486F72697A6F6EDD
:102D4000586265653A3A67657458626565506163B3
:102D50006B65743A20496E73756666696369656E62
:102D600074206D656D6F727920616C6C6F63617436
:102D700065642E00486F72697A6F6E586265653AB5
:102D80003A676574586265655061636B657420339A
:102D90003A2074696D65206F75742C206D657373AE
:102DA000616765206E6F742072656365697665641E
:102DB0002E00486F72697A6F6E586265653A3A679D
:102DC0006574586265655061636B657420323A20A2
:102DD00074696D65206F75742C206D657373616700
:102DE00065206E6F742072656365697665642E0078
:102DF000486F72697A6F6E586265653A3A676574B2
:102E0000586265655061636B657420313A2074695E
:102E10006D65206F75742C206D6573736167652017
:102E20006E6F742072656365697665642E00486F05
:102E300072697A6F6E586265653A3A67657458626E
:102E400065655061636B657420303A2077726F6EF0
:102E50006720636865636B73756D2C206D65737394
:102E600061676520636F727275707465642E0048C7
:102E70006F72697A6F6E586265653A3A7365744429
:102E8000657374696E6174696F6E416464726573B1
:102E9000733A2073657474696E672064657374692E
:102EA0006E6174696F6E20616464726573732E0065
:102EB0004552524F52004552524F52004F46464CD7
:102EC000494E45004F4E4C494E45004E4F5420430D
:102ED0004F4E4E454354454400434F4E4E45435498
:102EE00045442100436865636B696E6720636F6EBC
:102EF0006E656374696F6E207374617475732E2EC2
:102F00002E20001B5B313B33306D494E464F1B5B1F
:102F1000306D3A20005842656520696E69746961B8
:102F20006C697A656420696E2073657269616C20D2
:102F3000627970617373206D6F64652E20001B5B76
:102F4000313B33306D494E464F1B5B306D3A2000AC
:102F500045786974696E67204154206D6F64652EF1
:102F60002E2E001B5B313B33306D494E464F1B5BB1
:102F7000306D3A200053657474696E672041504982
:102F8000204D6F64652E2E2E001B5B313B33306D60
:102F9000494E464F1B5B306D3A2000496E76616C9E
:102FA00069642064657374696E6174696F6E206111
:102FB0006464726573732073657474696E672074DA
:102FC0006F2062726F6164636173742E001B5B31EA
:102FD0003B33316D4552524F521B5B306D3A2000EE
:102FE00053657474696E6720584265652044657343
:102FF00074696E6174696F6E205465726D696E617B
:103000006C2E2E2E20001B5B313B33306D494E461B
:103010004F1B5B306D3A200052656164696E67201A
:1030200058426565205465726D696E616C2E2E2E56
:1030300020001B5B313B33306D494E464F1B5B30EC
:103040006D3A20004200526164696F2E2E2E0049B5
:103050006E697469616C697A696E6720584265654A
:103060002E2E2E20001B5B313B33306D494E464FD8
:103070001B5B306D3A200025732F25730025732FBD
:1030800025730053656E64696E67206F66666C69B0
:103090006E652064617461004F66666C696E653AA6
:1030A00020736176696E67206461746100506163AA
:1030B0006B65742073656E740053656E64696E672A
:1030C000206D6F6E69746F722064617461001B5BA8
:1030D000313B33306D4C4F471B5B306D3A2000461F
:1030E00061696C656420746F2073656E64204F5253
:1030F00042207061636B6574004F524220706163BF
:103100006B65742073656E740052656365697665DE
:10311000207061796C6F61642078626565206D65EF
:1031200073736167650052656365697665206163E5
:103130006365732078626565206D6573736167658B
:103140000025733B25643B257300526563656976F2
:10315000696E672058626565207061636B657400F5
:103160005245534554494E470073657475703A2073
:103170004572726F7220696E697469616C697A69EF
:103180006E6720786265652C207265736574696E60
:10319000672064657669636521001B5B313B3431D0
:1031A0006D464154414C204552524F521B5B306D8D
:1031B0003A20005245534554494E47001B5B313B72
:1031C00034316D464154414C204552524F521B5BA5
:1031D000306D3A200073657475703A206C617374B9
:1031E0002066696C65206E616D653A2000736574B8
:1031F00075703A204572726F7220696E69746961E8
:103200006C697A696E6720736420636172642C2034
:10321000636865636B206966206974206973206345
:103220006F6E6E65637465642E001B5B313B3431D9
:103230006D464154414C204552524F521B5B306DFC
:103240003A20001B5B313B34316D464154414C20E8
:103250004552524F521B5B306D3A2000486F7269E5
:103260007A6F6E20547261636B6572202D20425517
:10327000494C4420001B5B313B33306D494E464F77
:103280001B5B306D3A200000000A0B02090C0D0E8A
:103290000807030401000000000000000000000017
:1032A000000000000000000000000000000000001E
:1032B00000000012111000000000000000000000DB
:1032C00000000000000000000000000000010210EB
:1032D0002020080810204010204080020102010830
:1032E00004020101020408102040808040201008E0
:1032F0000402018004020180402010080402010839
:103300000402010102040810204080010204081098
:103310002040800505050507050808080802020287
:10332000020A0A0808040404040101010101010160
:10333000010303030303030303040707070C0C0C37
:103340000C0C0C0C0C02020202060606060606060F
:10335000060B0B0B0B0B0B0B0B00002000230026A6
:103360000029002C002F003200000100000301069C
:1033700001090100002200250028002B002E003149
:1033800000340002010000050108010B01000021CA
:1033900000240027002A002D003000330001010026
:1033A00000040107010A017C3C3E5E2B3D3F2F5B80
:1033B0005D3B2C2A225C00000000006410B71DC891
:1033C000206E3BAC30D9269041DC76F4516B6B58C3
:1033D00061B24D3C7105502083B8ED44930FF0E885
:1033E000A3D6D68CB361CBB0C2649BD4D2D386783B
:1033F000E20AA01CF2BDBD00D84DE3638378607A79
:10340000F67A8C7B227C95879F8E469211241FBE74
:10341000CFEFD1E2DEBFCDBF00E00CBF17E0A0E0F0
:10342000B2E0E2E9F9E501E00BBF02C007900D92BE
:10343000A639B107D9F727E1A6E9B7E001C01D9287
:10344000AD3DB207E1F719E1C6E0DAE100E006C000
:1034500021970109802FFE010E94DEA2CC3FD107F7
:1034600080E00807A9F70E9474780C94C7AC0C940C
:1034700000008EBD00000DB407FEFDCF8EB508958F
:10348000DF92EF92FF920F931F93CF93DF93F62E6D
:10349000C42FE22E81111AC082EC94E10E940E87A3
:1034A0006C2F82EC94E10E94C586F02EE8018C2FEF
:1034B0008F198E1530F4699182EC94E10E94C586D3
:1034C000F6CF82EC94E10E94928715C060E08F2DC8
:1034D0000E94DA858C2F0E94391AD02EE8018C2F99
:1034E0008D198E1520F489910E94391AF8CF61E068
:1034F0008F2D0E94DA8581E0DF91CF911F910F918E
:10350000FF90EF90DF9008950F931F93CF93DF9379
:103510001F92CDB7DEB729838E010F5F1F4F21E0C9
:103520000E94401A0F90DF91CF911F910F91089543
:103530004F925F926F927F928F929F92AF92BF92C3
:10354000CF92DF92EF92FF920F931F93CF93DF936F
:10355000C62FD42ED22F811163C082EC94E10E9439
:103560000E876D2D82EC94E10E94C58682EC94E179
:103570000E9492876C2F82EC94E10E940E874D2F5F
:103580006C2F82EC94E10E948F870E9479844B011A
:103590005C01C0E02701612C712C82EC94E10E9457
:1035A0006986892B09F457C0E114F10469F46801B4
:1035B000CC0ED11CC7FDDA9482EC94E10E94718696
:1035C000F6018083CF5FE9CF0E947984DC01CB01D3
:1035D00088199909AA09BB0984159505A605B70597
:1035E00030F31C2F0E947984DC01CB0188199909E2
:1035F000AA09BB096701E12CF12C8C159D05AE05CC
:10360000BF0548F02C2FCC0F330B8D2F90E02817DF
:1036100039070CF41FEF82EC94E10E94928720C0DE
:1036200060E08C2F0E94DA858D2D80680E94391A07
:10363000D02E78018E2D8D198D1738F480E00E94E0
:10364000391AF70181937F01F5CF1D2F61E08C2F8F
:103650000E94DA8505C01C2FE114F104E1F2C2CF0B
:10366000812FDF91CF911F910F91FF90EF90DF900D
:10367000CF90BF90AF909F908F907F906F905F9012
:103680004F900895EF92FF920F931F937801890155
:1036900021E00E94981A1F910F91FF90EF900895DA
:1036A000AF92BF92CF92DF92EF92FF920F931F9350
:1036B000CF93DF931F92CDB7DEB7B22EA02E860137
:1036C0009E012F5F3F4F0E94421B882311F13981D9
:1036D0009B2D20E04B2D50E04A195109E1E0F0E02C
:1036E000692F70E04617570754F4BF01092E01C037
:1036F000660F0A94EAF76323262B9150F1CF30E04E
:103700004F5F5F4F02C0359527954A95E2F7F70165
:1037100020830F90DF91CF911F910F91FF90EF9039
:10372000DF90CF90BF90AF900895BF92CF92DF927D
:10373000EF92FF920F931F93CF93DF931F92CDB71A
:10374000DEB7F82EE62ED42EC22EB02E0091060241
:10375000109107029E012F5F3F4F0E94421B9981EB
:10376000BB2041F021E030E001C0220FCA94EAF70B
:10377000292B09C0E1E0F0E09F0101C0220FCA94AB
:10378000EAF72095292329834D2D6E2D8F2D0E9438
:10379000841A0F90DF91CF911F910F91FF90EF90BE
:1037A000DF90CF90BF900895AF92BF92CF92DF92FB
:1037B000EF92FF920F931F93CF93DF931F92CDB79A
:1037C000DEB7D82EC62EB42EA22EF02E0091060201
:1037D000109107029E012F5F3F4F0E94421B8823DA
:1037E000C1F14A2D50E00F2D10E0F12C88E090E05F
:1037F0009C01201B310B02C0EE0CFF1C2A95E2F746
:10380000FF2427E030E0241B350B02C0F594E79439
:103810002A95E2F7841B950B800F911F0197EFEF1C
:10382000F0E09F0102C0359527958A95E2F74F5F3A
:103830005F4F01C0EE0F4A95EAF7E22B2981E223A0
:103840002E2F2E2929834B2D6C2D8D2D0E94841A0D
:1038500001C080E00F90DF91CF911F910F91FF90F9
:10386000EF90DF90CF90BF90AF900895FC01608300
:1038700041830895EF920F93E62E02E024E04BE19E
:10388000FC01618180810E94D41B0F91EF9008950B
:10389000EF920F93E62E02E024E04CE1FC016181FF
:1038A00080810E94D41B0F91EF900895EF920F93A7
:1038B000E62E03E022E04CE1FC01618180810E9460
:1038C000D41B0F91EF900895262F4FE1FC016181E9
:1038D00080810C94841A262F40E2FC016181808152
:1038E0000C94841A262F41E2FC01618180810C94A2
:1038F000841A262F42E2FC01618180810C94841A93
:103900000F93062F26E048E3FC01618180810E942D
:10391000951B0F9108950F93062F25E048E3FC01B6
:10392000618180810E94951B0F9108950F931F93D1
:10393000CF93DF93EC0100910602109107029C01E6
:103940002E5F3F4F4AE3698188810E94421B8A8132
:10395000DF91CF911F910F910895EF920F93E62E73
:1039600002E025E049E6FC01618180810E94D41BD0
:103970000F91EF9008950F93062F24E04AE6FC0183
:10398000618180810E94951B0F9108950F9301E042
:1039900027E04BE6FC01618180810E94951B0F911D
:1039A00008950F93062F26E04BE6FC01618180818C
:1039B0000E94951B0F910895EF920F93E62E03E05E
:1039C00022E04BE6FC01618180810E94D41B0F91B3
:1039D000EF900895CF93DF93EC0188818823E9F07D
:1039E0000E94338661E089810E949E8561E0898121
:1039F0000E94DA85CE010E94C61C64E670E080E079
:103A000090E00E94AA8461E0CE010E94BB1C61E0AC
:103A100070E080E090E00E94AA8461E0CE010E9404
:103A2000DC1C60E0CE010E943A1C60E0CE010E94E6
:103A3000481C60E0CE01DF91CF910C94D11CCF9255
:103A4000DF92EF92FF920F93CF93DF93EC01C09040
:103A50000602D09007027C0182E0E80EF11C06E02D
:103A600026E045E7698188810E94501B8A81DF91A9
:103A7000CF910F91FF90EF90DF90CF9008950E942B
:103A80001F1D91E0843309F090E0892F0895FC0117
:103A9000283009F4EEC018F4213041F008952031A7
:103AA00009F4F7C0213109F402C1089587858430F3
:103AB000C1F4A08DB18D82A19C91613011F4892B4C
:103AC00002C0809589238C93A28DB38D9C9183A194
:103AD000809589238C93A28DB38D9C9183A1892B92
:103AE00008C0A089B189868D9C916130C1F3809511
:103AF00089238C93A08DB18D82A19C9147FF02C038
:103B0000892B02C0809589238C93A28DB38D9C91C3
:103B100083A1809589238C93A28DB38D9C9183A1E1
:103B2000892B8C93A08DB18D82A19C9146FF02C000
:103B3000892B02C0809589238C93A28DB38D9C9193
:103B400083A1809589238C93A28DB38D9C9183A1B1
:103B5000892B8C93A08DB18D82A19C9145FF02C0D1
:103B6000892B02C0809589238C93A28DB38D9C9163
:103B700083A1809589238C93A28DB38D9C9183A181
:103B8000892B8C93A08DB18D82A19C9144FF02C0A2
:103B9000892B02C0809589238C93A28DB38D9C9133
:103BA00083A1809589238C93A28DB38D9C9183A151
:103BB000892B8C93A08DB18D82A19C9143FF02C073
:103BC000892B02C0809589238C93A28DB38D9C9103
:103BD00083A1809589238C93A28DB38D9C9183A121
:103BE000892B8C93A08DB18D82A19C9142FF02C044
:103BF000892B02C0809589238C93A28DB38D9C91D3
:103C000083A1809589238C93A28DB38D9C9183A1F0
:103C1000892B8C93A08DB18D82A19C9141FF02C014
:103C2000892B02C0809589238C93A28DB38D9C91A2
:103C300083A1809589238C93A28DB38D9C9183A1C0
:103C4000892B8C93A08DB18D82A19C9140FF02C0E5
:103C5000892B02C0809589238C93A28DB38D9C9172
:103C600083A1809589238C93A28DB38D9C9183A190
:103C7000AEC062B9A289B3899C91878D8095892352
:103C80008C93A289B3899C91878D892B8C9342B99F
:103C900002C062B948B9A289B3899C91878D809589
:103CA00089238C93A289B3899C91878D90C0A59814
:103CB00094B3862F8071880F892B84BB8091020179
:103CC000877E8093020120910201862F062E000C30
:103CD000990B807C992733E0959587953A95E1F784
:103CE000822B809302018EB1847C8EB98EB1962F87
:103CF0009C70990F990F262F2370920F6072062ED9
:103D0000000C770B7595679575956795690F682B0E
:103D10006EB9A48DB58D9C9184A1809589238C93D7
:103D2000A48DB58D9C9184A1892B8C93A48DB58D88
:103D30009C9184A1809589238C93A489B5899C91B9
:103D400080A1809589238C93A59894B3842F80714A
:103D5000880F892B84BB80910201877E80930201AA
:103D600020910201842F042E000C990B807C99274E
:103D700063E0959587956A95E1F7822B8093020120
:103D80008EB1847C8EB98EB1942F9C70990F990F4F
:103D9000242F2370920F4072042E000C550B559562
:103DA000479555954795490F482B4EB9A289B38938
:103DB0009C91878D809589238C93A289B3899C914E
:103DC000878D892B8C93A489B5899C9180A1892B9F
:103DD0008C930895613131F08FEF81B9603149F4EE
:103DE00087B9089588E18093010180E283BB8BE36A
:103DF0008DB908958F929F92AF92BF92CF92DF922A
:103E0000EF92FF920F931F93CF93DF93EC01680122
:103E1000790162B948B9C901B80120E130E040E058
:103E200050E00E94BFA249015A0180E090E0DC010D
:103E300088159905AA05BB050CF0D4C0EA89FB8951
:103E400030812F8D209523232083EA89FB893081BF
:103E50002F8D232B2083EA89FB8930812F8D20959C
:103E600023232083EA89FB8930812F8D232B208314
:103E7000EA89FB8930812F8D209523232083EA89CD
:103E8000FB8930812F8D232B2083EA89FB893081A8
:103E90002F8D209523232083EA89FB8930812F8D64
:103EA000232B2083EA89FB8930812F8D20952323C2
:103EB0002083EA89FB8930812F8D232B2083EA8997
:103EC000FB8930812F8D209523232083EA89FB896C
:103ED00030812F8D232B2083EA89FB8930812F8D20
:103EE000209523232083EA89FB8930812F8D232B82
:103EF0002083EA89FB8930812F8D2095232320831D
:103F0000EA89FB8930812F8D232B2083EA89FB8965
:103F100030812F8D209523232083EA89FB893081EE
:103F20002F8D232B2083EA89FB8930812F8D2095CB
:103F300023232083EA89FB8930812F8D232B208343
:103F4000EA89FB8930812F8D209523232083EA89FC
:103F5000FB8930812F8D232B2083EA89FB893081D7
:103F60002F8D209523232083EA89FB8930812F8D93
:103F7000232B2083EA89FB8930812F8D20952323F1
:103F80002083EA89FB8930812F8D232B2083EA89C6
:103F9000FB8930812F8D209523232083EA89FB899B
:103FA00030812F8D232B2083EA89FB8930812F8D4F
:103FB000209523232083EA89FB8930812F8D232BB1
:103FC0002083EA89FB8940813F8D309534233083FB
:103FD000EA89FB8920813F8D322B30830196A11D18
:103FE000B11D26CFD701C6018F709927AA27BB27FD
:103FF000892B8A2B8B2B19F1C701B60120E130E008
:1040000040E050E00E94BFA2C12CD12C76016C157B
:104010007D058E059F059CF0EA89FB8930812F8DF7
:10402000209523232083EA89FB8930812F8D232B40
:1040300020832FEFC21AD20AE20AF20AE8CFDF91F8
:10404000CF911F910F91FF90EF90DF90CF90BF9095
:10405000AF909F908F9008958F929F92AF92BF9252
:10406000CF92DF92EF92FF92CF93DF93EC01690141
:104070007A0162B9CA01B90120E130E040E050E0C4
:104080000E94BFA249015A0180E090E0DC0188153E
:104090009905AA05BB050CF0A4C1EA89FB8930810A
:1040A0002F8D209523232083EA89FB8930812F8D52
:1040B000232B2083EA89FB8930812F8D20952323B0
:1040C0002083EA89FB8930812F8D232B2083EA8985
:1040D000FB8930812F8D209523232083EA89FB895A
:1040E00030812F8D232B2083EA89FB8930812F8D0E
:1040F000209523232083EA89FB8930812F8D232B70
:104100002083EA89FB8930812F8D2095232320830A
:10411000EA89FB8930812F8D232B2083EA89FB8953
:1041200030812F8D209523232083EA89FB893081DC
:104130002F8D232B2083EA89FB8930812F8D2095B9
:1041400023232083EA89FB8930812F8D232B208331
:10415000EA89FB8930812F8D209523232083EA89EA
:10416000FB8930812F8D232B2083EA89FB893081C5
:104170002F8D209523232083EA89FB8930812F8D81
:10418000232B2083EA89FB8930812F8D20952323DF
:104190002083EA89FB8930812F8D232B2083EA89B4
:1041A000FB8930812F8D209523232083EA89FB8989
:1041B00030812F8D232B2083EA89FB8930812F8D3D
:1041C000209523232083EA89FB8930812F8D232B9F
:1041D0002083EA89FB8930812F8D2095232320833A
:1041E000EA89FB8930812F8D232B2083EA89FB8983
:1041F00030812F8D209523232083EA89FB8930810C
:104200002F8D232B2083EA89FB8930812F8D2095E8
:1042100023232083EA89FB8930812F8D232B208360
:10422000EA89FB8930812F8D209523232083EA8919
:10423000FB8930812F8D232B2083EA89FB893081F4
:104240002F8D209523232083EA89FB8930812F8DB0
:10425000232B2083EA89FB8930812F8D209523230E
:104260002083EA89FB8930812F8D232B2083EA89E3
:10427000FB8930812F8D209523232083EA89FB89B8
:1042800030812F8D232B2083EA89FB8930812F8D6C
:10429000209523232083EA89FB8930812F8D232BCE
:1042A0002083EA89FB8930812F8D20952323208369
:1042B000EA89FB8930812F8D232B2083EA89FB89B2
:1042C00030812F8D209523232083EA89FB8930813B
:1042D0002F8D232B2083EA89FB8930812F8D209518
:1042E00023232083EA89FB8930812F8D232B208390
:1042F000EA89FB8930812F8D209523232083EA8949
:10430000FB8930812F8D232B2083EA89FB89308123
:104310002F8D209523232083EA89FB8930812F8DDF
:10432000232B2083EA89FB8930812F8D209523233D
:104330002083EA89FB8930812F8D232B2083EA8912
:10434000FB8930812F8D209523232083EA89FB89E7
:1043500030812F8D232B2083EA89FB8930812F8D9B
:10436000209523232083EA89FB8930812F8D232BFD
:104370002083EA89FB8930812F8D20952323208398
:10438000EA89FB8930812F8D232B2083EA89FB89E1
:1043900030812F8D209523232083EA89FB8930816A
:1043A0002F8D232B2083EA89FB8930812F8D209547
:1043B00023232083EA89FB8930812F8D232B2083BF
:1043C000EA89FB8940813F8D309534233083EA8927
:1043D000FB8920813F8D322B30830196A11DB11DB9
:1043E00056CED701C6018F709927AA27BB27892BE4
:1043F0008A2B8B2B81F1C701B60120E130E040E030
:1044000050E00E94BFA2C12CD12C76016C157D0515
:104410008E059F0504F1EA89FB8930812F8D209557
:1044200023232083EA89FB8930812F8D232B20834E
:10443000EA89FB8930812F8D209523232083EA8907
:10444000FB8930812F8D232B20832FEFC21AD20AB4
:10445000E20AF20ADBCFDF91CF91FF90EF90DF907D
:10446000CF90BF90AF909F908F9008954F925F92A2
:104470006F927F92AF92BF92CF92DF92EF92FF92B4
:104480000F931F93CF93DF93CDB7DEB7C45AD109F3
:104490000FB6F894DEBF0FBECDBF5C0180E4E9E348
:1044A000F2E0DE01AF5BBF4F01900D928A95E1F71C
:1044B00080E4E9E7F2E0DE01119601900D928A9521
:1044C000E1F780E2E9EBF2E0DE01AF57BF4F019088
:1044D0000D928A95E1F7862F90E0FC01EE0FFF1F09
:1044E000A1E4B0E0AC0FBD1FAE0FBF1F0D90BC919B
:1044F000A02D2D01612C712CD50115964D925D9248
:104500006D927C921897A1E0B0E0AC0FBD1FEA0F4E
:10451000FB1F40805180612C712CF5014186528631
:1045200063867486E1E8F0E0EC0FFD1FE80FF91FE9
:104530008081D5011E968C931E971D966C931D97B6
:1045400095964C93959796962C93969797960C9351
:1045500097979896EC9298979996CC9299978430E1
:1045600031F491E01E969C931E971F968C93F50153
:104570008685853019F491E096878787D5011E9648
:104580006C91613009F4BFC0C501CD55DF4F288360
:10459000C35AD040CC55DF4F3883C45AD040CF5592
:1045A000DF4F4883C15AD040CE55DF4F5883C25A9F
:1045B000D0400E94EA1ECF55DF4F4881C15AD040FB
:1045C000842FCE55DF4F5881C25AD040952FFC0121
:1045D000ED5EFC4CE491F0E0EE0FFF1FED58FC4C5B
:1045E00045915491F501518B408BFC01E353FD4CF7
:1045F000E491D5015E96EC935E97CD55DF4F28810F
:10460000C35AD040822FCC55DF4F3881C45AD04096
:10461000932FFC01ED5EFC4CE491F0E0EE0FFF1FE8
:10462000ED58FC4C25913491F501338B228BFC0124
:10463000E353FD4CE4915F96EC935F97F801ED5ED8
:10464000FC4CE491F0E0EE0FFF1FED58FC4C25917F
:104650003491F501358B248BF801E353FD4CE49143
:104660009096EC939097F701ED5EFC4CE491F0E0AE
:10467000EE0FFF1FED58FC4C85919491F501978B3F
:10468000868BF701E353FD4CE4909196EC92919761
:104690001E968C91813109F0ABC0F601ED5EFC4CA9
:1046A000E491F0E0EE0FFF1FED58FC4CA591B491A2
:1046B000F501B58FA48FF601E353FD4C9491F501FC
:1046C00094A38C91E92FE095E823EC9361E088E0D6
:1046D0000E949E8560E088E0CC55DF4F0FB6F894CD
:1046E000DEBF0FBECDBFDF91CF911F910F91FF9025
:1046F000EF90DF90CF90BF90AF907F906F905F90E2
:104700004F900C94DA85CA01FA01ED5EFC4CE491FD
:10471000F0E0EE0FFF1FED58FC4C45915491D50190
:1047200059965C934E935897FC01E353FD4CE491EA
:104730009296EC939297C901F901ED5EFC4CE491DD
:10474000F0E0EE0FFF1FED58FC4C25913491F50180
:10475000338F228FFC01E353FD4CE4919396EC934D
:104760009397F801ED5EFC4CE491F0E0EE0FFF1F33
:10477000ED58FC4C25913491F501358B248BF801D3
:10478000E353FD4CE4919096EC93BFEFEB16F104EC
:10479000A9F0F701ED5EFC4CE491F0E0EE0FFF1F95
:1047A000ED58FC4C85919491F501978B868BF70120
:1047B000E353FD4CE490D5019196EC92F501878589
:1047C0008430B1F0F601ED5EFC4CE491F0E0EE0FC8
:1047D000FF1FED58FC4C25913491D50151963C9327
:1047E0002E935097F601E353FD4CE4915E96EC93C3
:1047F000CC55DF4F0FB6F894DEBF0FBECDBFDF91B3
:10480000CF911F910F91FF90EF90DF90CF90BF90CD
:10481000AF907F906F905F904F900895462FDC018E
:104820001E962C911E97213071F05096ED91FC91BF
:10483000519730815E962C915E972095232320839B
:104840001E962C9101C021E060E00C94471D1F933F
:10485000CF93DF93DC011E962C911E97213069F0D7
:104860005096ED91FC91519730815E962C915E9718
:10487000232B20831E962C910BC0142F462FEC0166
:1048800021E061E00E94471D2E85412F61E0CE01AD
:10489000DF91CF911F910C94471D462FDC011E968E
:1048A0002C911E97213071F05096ED91FC9151970B
:1048B00030815E962C915E97232B20831E962C913F
:1048C00060E002C021E061E00C94471D0F931F934C
:1048D000CF93DF931F921F92CDB7DEB78C01498330
:1048E0005A830E940E2449815A81652FC8010F9076
:1048F0000F90DF91CF911F910F910C942724AF92CD
:10490000BF92CF92DF92EF92FF920F931F93CF93BC
:10491000DF93EC016B015A0179018C81813059F4EC
:1049200089859A859C01261B370B8E199F09780172
:1049300089016A015C018D8590E08032910508F063
:1049400070C1FC018827EE58FF4F8F4F0C94DEA2F8
:104950004D2D50E062E0CE010E946624A60163E086
:10496000CE010E9466244F2D50E064E0CE010E94EB
:104970006624A70165E0CE010E9466244B2D50E01D
:1049800066E0CE010E946624A50167E0CE010E9488
:104990006624412F50E08AC06AE2CE010E940E24B4
:1049A0004D2D60E0CE010E9427244C2D60E0CE0109
:1049B0000E9427244F2D60E0CE010E9427244E2D17
:1049C00060E0CE010E9427246BE2CE010E940E24FB
:1049D0004B2D60E0CE010E9427244A2D60E0CE01DD
:1049E0000E942724412F60E0CE010E942724402FFF
:1049F00060E0CE010E94272406C15E2D44274C0DA5
:104A00005D1D64E4CE010E946624A50165E4CE012B
:104A10000E946624A80166E4CE010E946624A601D5
:104A20006EE4CE010E946624A5016FE4A9C0A60130
:104A300060E2CE010E946624A50161E2CE010E94DF
:104A40006624A60160E5CE010E946624A50162E508
:104A5000CE010E946624A70161E5CE010E94662472
:104A6000A80163E58DC040E050E062E0CE010E9405
:104A70006624A60163E0CE010E94662440E050E077
:104A800064E0CE010E946624A70165E0CE010E9489
:104A9000662440E050E066E0CE010E946624A50155
:104AA00067E0CE010E94662440E050E068E0CE015D
:104AB0000E946624A80169E063C06AE2CE010E94F8
:104AC0000E246C2DCE010E944D246E2DCE010E942D
:104AD0004D246BE2CE010E940E246A2D8DC06AE245
:104AE000CE010E940E246B2DCE010E944D246A2D12
:104AF000CE010E944D24612FCE010E944D24602FD3
:104B0000CE010E944D246BE2CE010E940E246D2D39
:104B1000CE010E944D246C2DCE010E944D246F2D9C
:104B2000CE010E944D246E2D6BC05E2D44274C2972
:104B30005D2966E4CE010E946624A80167E4CE01E7
:104B40000E946624A50168E411C0A70166E3CE01B6
:104B50000E946624A60167E3CE010E946624A80194
:104B600068E3CE010E946624A50169E3CE010E949C
:104B70006624A60160E2CE010E946624A50161E2DE
:104B8000CE010E94662462E23FC0A50162E0CE0130
:104B90000E946624A60163E0CE010E946624A8015B
:104BA00066E0CE010E946624A70167E0CE010E9464
:104BB00066246FE029C06AE2CE010E940E246D2DAA
:104BC000CE010E944D246C2DCE010E944D246F2DEC
:104BD000CE010E944D246E2DCE010E944D246BE229
:104BE000CE010E940E246B2DCE010E944D246A2D11
:104BF000CE010E944D24612FCE010E944D24602FD2
:104C0000CE010E944D246CE2CE01DF91CF911F9125
:104C10000F91FF90EF90DF90CF90BF90AF900C94EA
:104C20000E24DF91CF911F910F91FF90EF90DF90B5
:104C3000CF90BF90AF9008950F931F93CF93DF93C2
:104C4000EC016C8361E08DA10E949E8561E08EA1E4
:104C50000E949E8561E08FA10E949E8588A58F3F5E
:104C600019F061E00E949E858E85813129F08130A6
:104C700039F48F85853021F461E089A50E949E85F5
:104C80006E85613019F0CE010E94EA1EEE89FF891F
:104C9000908189A1892B808365E070E080E090E0BD
:104CA0000E94AA84EE89FF89908189A18095892339
:104CB00080836FE070E080E090E00E94AA84EE893B
:104CC000FF89908189A1892B80836FE070E080E06B
:104CD00090E00E94AA84EC89FD89908188A180954A
:104CE000892380838D8590E08032910510F00C94AB
:104CF0009041FC018827EE56FF4F8F4F0C94DEA2A7
:104D000044EA50E066E4CE010E94662443E550E0A8
:104D100067E4CE010E94662440E050E068E4CE01E2
:104D20000E94662444E450E069E4CE010E946624B7
:104D300044E050E06AE4CE010E94662447E650E079
:104D40006BE4CE010E94662443E350E06CE4CE01A4
:104D50000E94662447E750E06DE4CE010E9466247D
:104D600042E150E06EE4CE010E9466244CE450E043
:104D70006FE4CE010E94662446E450E060E5CE0177
:104D80000E94662444E450E061E5CE010E9466245E
:104D900040E050E062E0CE010E94662440E050E036
:104DA00063E0CE010E94662440E050E064E0CE0162
:104DB0000E9466244FEE50E065E0CE010E9466241A
:104DC00040E050E066E0CE010E94662440E050E002
:104DD00067E0CE010E94662441E050E068E0CE0129
:104DE0000E9466244FE350E069E0CE010E946624F1
:104DF00046E050E061E0CE010E94662448EC50E0BD
:104E000066E1CE010E94662445E950E063E2CE01EE
:104E10000E94662445E950E064E2CE010E946624C7
:104E20004FEF50E065E2CE010E94662442E050E080
:104E300067E2CE010E94662442E050E068E2CE01C3
:104E40000E94662442E050E069E2CE010E9466249E
:104E500042E050E06AE2CE010E94662442E050E067
:104E60006CE2CE010E94662442E050E06DE2CE0189
:104E70000E94662441E050E06AE3CE010E9466246D
:104E800040E050E06BE3CE010E94662440EF50E02A
:104E90006CE3CE010E94662440E050E06DE3CE0159
:104EA0000E94662461E070E080E090E00E94AA84A5
:104EB00048E350E065E3CE010E94662448E750E0F5
:104EC00066E3CE010E94662448E350E06EE3CE0123
:104ED0000E9466244FE050E060E4CE010E94662408
:104EE00040EF50E061E4CE010E94662449E450E0C6
:104EF00069E1CE010E9466244FE050E063E9CE01F3
:104F00000E94662461E070E080E090E00E94AA8444
:104F100040E450E060E2CE010E94662447E050E0A9
:104F20006DE1CE010E94662440E050E06EE1CE01CA
:104F30000E94662444E050E06FE1CE010E946624A6
:104F40004DE450E064E4CE010E9466244EE050E05F
:104F500065E4CE010E94662461E070E080E090E0AC
:104F60000E94AA8444E050E06CE1CE010E946624D5
:104F700062E070E080E090E00E94AA8448E150E0A6
:104F80006BE1CE010E94662461E070E080E090E079
:104F90000E94AA8440E150E06BE1CE010E946624A9
:104FA00061E070E080E090E00E94AA8440E850E078
:104FB00063E4CE010E94662462E070E080E090E04D
:104FC0000E94AA844FE750E060E9CE010E94662467
:104FD00044E050E066E2CE010E94662461E070E0A9
:104FE00080E090E00E94AA8444E250E066E2CE01B4
:104FF0000E9466244CE250E066E2CE010E946624E4
:1050000061E070E080E090E00E94AA844CE350E010
:1050100066E2CE010E94662442E050E067E5CE01E0
:105020000E94662441E050E065E9CE010E946624BA
:1050300040E050E067E50C942C3B69EECE010E9405
:105040000E2440E260E0CE010E94272461E1CE01FF
:105050000E940E2464E670E080E090E00E94AA8442
:1050600061EDCE010E940E2440E060E0CE010E947E
:10507000272441E760E0CE010E94272449E160E057
:10508000CE010E94272460EDCE010E940E2447E04D
:1050900060E0CE010E94272441E060E0CE010E9442
:1050A000272448E060E0CE010E94272466E3CE0179
:1050B0000E940E2448E460E0CE010E9427246AE3A7
:1050C000CE010E940E2445E060E0CE010E9427241C
:1050D00061ECCE010E940E2440E160E0CE010E940E
:1050E000272440E160E0CE010E94272442E060E0F6
:1050F000CE010E94272442E060E0CE010E942724D6
:1051000060ECCE010E940E2440E060E0CE010E94DF
:10511000272445E360E0CE010E94272440E060E0C0
:10512000CE010E94272440E060E0CE010E942724A7
:1051300041E060E0CE010E94272442E060E0CE0121
:105140000E94272465ECCE010E940E2444E060E01A
:10515000CE010E94272462EDCE010E940E2441E080
:1051600060E0CE010E94272444E460E0CE010E946A
:10517000272468ECCE010E940E2444E060E0CE01BA
:105180000E94272447E660E0CE010E94272445E3E1
:1051900060E0CE010E94272444E060E0CE010E943E
:1051A000272448E060E0CE010E94272446E060E02A
:1051B000CE010E94272444E260E0CE010E94272411
:1051C00041E060E0CE010E94272447E360E0CE0189
:1051D0000E94272440E460E0CE010E94272443E09F
:1051E00060E0CE010E94272440E160E0CE010E94F1
:1051F000272448E060E0CE010E94272440E860E0D8
:10520000CE010E94272440E060E0CE010E942724C6
:105210006AE2CE010E940E2440E060E0CE010E94CE
:10522000272440E060E0CE010E94272440E060E0B7
:10523000CE010E9427244FEE60E0CE010E94272479
:105240006BE2CE010E940E2440E060E0CE010E949D
:10525000272440E060E0CE010E94272441E060E086
:10526000CE010E9427244FE860E0CE010E9427244F
:1052700069E2CE010E940E246CE2CE010E940E244F
:105280000C94904141E050E060E0CE010E94662421
:1052900044EA58EA63E0CE010E94662440E050E010
:1052A0006CE0CE010E9466244CE058E06DE0CE0137
:1052B0000E94662440E05BE26EE0CE010E9466241C
:1052C00047EB50E06EE1CE010E9466244FE35BE2C3
:1052D00061E0CE010E94662440E056E062E0CE012B
:1052E0000E94662440E050E060E1CE010E94662406
:1052F00040E750E661E1CE010E94662440E050E0C4
:1053000065E0CE010E94662440E050E066E0CE01F8
:105310000E9466244CE15FEE66E1CE010E946624A5
:1053200043E050E067E1CE010E94662443E352E08F
:1053300067E0CE010E94662440E050E06BE0CE01C1
:105340000E94662440E050E06FE0CE010E94662497
:1053500040E050E061E4CE010E94662440E050E06D
:1053600062E4CE010E94662440E050E068E4CE0191
:105370000E9466244FE351E069E4CE010E94662456
:1053800040E050E06AE4CE010E94662440E050E034
:105390006BE4CE010E94662440E05FEE64E4CE013F
:1053A0000E94662440E050E065E4CE010E9466243D
:1053B0004FE351E066E4CE010E94662447E057E0E7
:1053C00060E3CE010E94662444E052E061E3CE0136
:1053D0000E94662444E052E062E3CE010E9466240B
:1053E00042E055E063E3CE010E94662447E055E0C9
:1053F00064E3CE010E94662444E052E065E3CE01FE
:105400000E94662444E052E066E3CE010E946624D6
:1054100042E055E067E3CE010E94662442E053E09B
:105420006AE3CE010E94662442E053E06BE3CE01C2
:105430000E94662440E050E063E2CE010E946624B0
:1054400040E050E064E2CE010E94662440E050E873
:1054500065E2CE010E94662440E050E06FE4CE0198
:105460000E94662440E050E06EE40C942C3B40EF38
:1054700058E765EECE010E94662440E051E061E00D
:10548000CE010E94662440E057E062E0CE010E9417
:10549000662440E350E163E0CE010E94662440E0D0
:1054A00050E064E0CE010E94662447E052E068E0EC
:1054B000CE010E94662440E050E069E0CE010E94E7
:1054C000662440E050E06AE0CE010E94662440E09D
:1054D00050E06CE0CE010E94662440E050E06DE0B8
:1054E000CE010E94662440E050E06FE0CE010E94B1
:1054F000662440E050E060E1CE010E94662447E06F
:1055000050E061E1CE010E94662440E050E062E19B
:10551000CE010E94662440E050E063E1CE010E948B
:10552000662441E050E067E0CE010E94662468EC0A
:1055300070E080E090E00E94AA8440E950E160E1E0
:10554000CE010E94662447E252E061E1CE010E9452
:10555000662462E370E080E090E00E94AA844FE15C
:1055600050E062E1CE010E94662462E370E080E0D8
:1055700090E00E94AA8440E055E163E1CE010E94E0
:10558000662447E250E069E2CE010E9466244DE0C5
:1055900050E06BE2CE010E94662462E370E080E09E
:1055A00090E00E94AA8440E050E060E2CE010E94B8
:1055B000662440E050E061E2CE010E94662440E0B3
:1055C00050E060E3CE010E94662447E057E061E3CB
:1055D000CE010E94662447E053E062E3CE010E94C0
:1055E000662440E052E065E3CE010E94662448E074
:1055F00050E066E3CE010E94662444E050E067E399
:10560000CE010E94662440E050E068E3CE010E9493
:10561000662447E057E069E3CE010E94662442E039
:1056200050E06CE3CE010E94662444E05DE16DE34E
:10563000CE010E94662440E050E060E5CE010E9469
:1056400066244FEE50E061E5CE010E94662440E002
:1056500050E062E5CE010E9466244FE351E063E52D
:10566000CE010E94662440E057EA60E6CE010E9427
:10567000662441E050E061E6CE010E94662440E0ED
:1056800050E06AE6CE010E94662440E050E060E807
:10569000CE010E94662440E050E061E8CE010E9405
:1056A000662440E050E062E8CE010E94662440E0BB
:1056B00050E063E8CE010E94662440E050E064E8D8
:1056C000CE010E94662440E050E065E8CE010E94D1
:1056D000662440E150E060E9CE010E94662440E08B
:1056E00056E03AC140EF58E765EECE010E946624CD
:1056F00040E051E061E0CE010E94662440E052E0CB
:1057000062E0CE010E94662440E350E163E0CE01F6
:105710000E94662440E050E064E0CE010E946624CE
:1057200047E052E068E0CE010E94662440E050E08D
:1057300069E0CE010E94662440E050E06AE0CE01BC
:105740000E94662440E050E06CE0CE010E94662496
:1057500040E050E06DE0CE010E94662440E050E061
:105760006FE0CE010E94662440E050E060E1CE018F
:105770000E94662447E050E061E1CE010E94662469
:1057800040E050E062E1CE010E94662440E050E03B
:1057900063E1CE010E94662441E050E067E0CE0163
:1057A0000E94662468EC70E080E090E00E94AA8489
:1057B00040E956E160E1CE010E94662447E252E0F2
:1057C00061E1CE010E94662462E370E080E090E037
:1057D0000E94AA844DE050E062E1CE010E9466245E
:1057E00062E370E080E090E00E94AA8440E052E131
:1057F00063E1CE010E9466244AE050E069E2CE01F6
:105800000E9466244DE050E06BE2CE010E946624C7
:1058100062E370E080E090E00E94AA8440E050E003
:1058200060E2CE010E94662440E050E061E2CE01D9
:105830000E94662440E050E060E3CE010E946624AE
:1058400044E054E061E3CE010E94662443E050E06E
:1058500062E3CE010E94662445E054E065E3CE0198
:105860000E94662448E058E066E3CE010E94662468
:1058700047E054E067E3CE010E94662443E053E032
:1058800068E3CE010E94662447E057E069E3CE0159
:105890000E94662444E055E06CE3CE010E94662439
:1058A00048E058E06DE3CE010E94662440E050E0FD
:1058B00060E5CE010E9466244FEE50E061E5CE0126
:1058C0000E94662440E050E062E5CE010E9466241A
:1058D0004FE351E063E5CE010E94662440E057EAC1
:1058E00060E6CE010E94662441E050E061E6CE0110
:1058F0000E94662440E050E06AE6CE010E946624E1
:1059000040E050E060E8CE010E94662440E050E0B4
:1059100061E8CE010E94662440E050E062E8CE01DA
:105920000E94662440E050E063E8CE010E946624B5
:1059300040E050E064E8CE010E94662440E050E080
:1059400065E8CE010E94662440E150E060E9CE01A6
:105950000E94662440E050E062E9CE010E94662485
:1059600043E351E067E0CE010E9466240C9490412D
:1059700040EF58E765EECE010E94662440E051E01A
:1059800061E0CE010E94662440E057E062E0CE0173
:105990000E94662440E350E163E0CE010E94662449
:1059A00040E050E064E0CE010E94662447E052E00F
:1059B00068E0CE010E94662440E050E069E0CE013C
:1059C0000E94662440E050E06AE0CE010E94662416
:1059D00040E050E06CE0CE010E94662440E050E0E0
:1059E0006DE0CE010E94662440E050E06FE0CE0101
:1059F0000E94662440E050E060E1CE010E946624EF
:105A000047E050E061E1CE010E94662440E050E0B2
:105A100062E1CE010E94662440E050E063E1CE01E5
:105A20000E94662441E050E067E0CE010E946624B7
:105A300068EC70E080E090E00E94AA8440E955E1C3
:105A400060E1CE010E94662447E252E061E1CE01AE
:105A50000E94662462E370E080E090E00E94AA84E5
:105A60004CE950E062E1CE010E94662462E370E0FE
:105A700080E090E00E94AA8440E059E163E1CE0119
:105A80000E94662443E250E069E2CE010E9466244F
:105A90004EE050E0B9CE44E850E066E2CE010E940C
:105AA000662468E270E080E090E00E94AA8448EBFF
:105AB00050E066E2CE010E94662468E270E080E079
:105AC00090E00E94AA844CEB50E066E2CE010E9476
:105AD000662464E170E080E090E00E94AA8440E0E7
